00COTAHIST.2023BOVESPA 20231124                                                                                                                                                                                                                      
012023010202NGRD3       010NEOGRID     ON      NM   R$  000000000014800000000001500000000000143000000000014600000000001450000000000145000000000014601011000000000000589900000000000086150900000000000000009999123100000010000000000000BRNGRDACNOR3102
012023010202TUPY3       010TUPY        ON  EJ  NM   R$  000000000277100000000027710000000002583000000000263700000000026570000000002643000000000265703367000000000000573000000000001511380400000000000000009999123100000010000000000000BRTUPYACNOR1180
012023010202DMVF3       010D1000VFARMA ON      NM   R$  000000000040000000000004070000000000395000000000040200000000003990000000000399000000000040300046000000000000007500000000000003017400000000000000009999123100000010000000000000BRDMVFACNOR9100
012023010202EALT4       010ACO ALTONA  PN           R$  000000000067100000000006940000000000656000000000067100000000006560000000000656000000000066000164000000000000046000000000000030887600000000000000009999123100000010000000000000BREALTACNPR1136
012023010202SYNE3       010SYN PROP TECON      NM   R$  000000000041300000000004130000000000400000000000040500000000004060000000000406000000000040800858000000000000857000000000000347935200000000000000009999123100000010000000000000BRSYNEACNOR2102
012023010202BRIT3       010BRISANET    ON      NM   R$  000000000027300000000002730000000000252000000000025400000000002540000000000254000000000025500811000000000000830500000000000211349800000000000000009999123100000010000000000000BRBRITACNOR0101
012023010202BRKM5       010BRASKEM     PNA     N1   R$  000000000238600000000023860000000002288000000000232100000000023220000000002322000000000232806925000000000001345700000000003123548200000000000000009999123100000010000000000000BRBRKMACNPA4120
012023010202ODPV3       010ODONTOPREV  ON      NM   R$  000000000090000000000009020000000000869000000000088500000000008890000000000882000000000088902380000000000000836500000000000740496300000000000000009999123100000010000000000000BRODPVACNOR4193
012023010202ONCO3       010ONCOCLINICASON      NM   R$  000000000059500000000005960000000000554000000000056800000000005790000000000579000000000059004098000000000001937800000000001101961200000000000000009999123100000010000000000000BRONCOACNOR6100
012023010202SGPS3       010SPRINGS     ON      NM   R$  000000000013800000000001380000000000124000000000012800000000001270000000000127000000000013200291000000000000222100000000000028448700000000000000009999123100000010000000000000BRSGPSACNOR4104
012023010202SLCE3       010SLC AGRICOLAON  EJ  NM   R$  000000000459400000000046170000000004501000000000457100000000045940000000004593000000000459504556000000000000731200000000003342643600000000000000009999123100000010000000000000BRSLCEACNOR2120
012023010202AMBP3       010AMBIPAR     ON      NM   R$  000000000205300000000020530000000001971000000000200400000000020340000000002034000000000203503932000000000000885900000000001775669300000000000000009999123100000010000000000000BRAMBPACNOR6102
012023010202MELK3       010MELNICK     ON      NM   R$  000000000032500000000003250000000000295000000000030200000000002970000000000297000000000030102427000000000001099600000000000332590000000000000000009999123100000010000000000000BRMELKACNOR8107
012023010202FESA3       010FERBASA     ON      N1   R$  000000000600000000000060000000000005850000000000595000000000059000000000005877000000000620000003000000000000000500000000000002975000000000000000009999123100000010000000000000BRFESAACNOR8182
012023010202APER3       010ALPER S.A.  ON      NM   R$  000000000269900000000027000000000002588000000000266500000000025880000000002588000000000270000021000000000000010000000000000026650600000000000000009999123100000010000000000000BRAPERACNOR9105
012023010202ATOM3       010ATOMPAR     ON           R$  000000000024800000000002490000000000239000000000024300000000002400000000000234000000000024000026000000000000007100000000000001730900000000000000009999123100000010000000000000BRATOMACNOR1105
012023010202EVEN3       010EVEN        ON      NM   R$  000000000045700000000004570000000000428000000000043600000000004330000000000433000000000043509736000000000002082900000000000908710800000000000000009999123100000010000000000000BREVENACNOR8116
012023010202TAEE4       010TAESA       PN      N2   R$  000000000117500000000011750000000001141000000000114900000000011620000000001150000000000116501737000000000000357200000000000410745500000000000000009999123100000010000000000000BRTAEEACNPR6140
012023010202TECN3       010TECHNOS     ON      NM   R$  000000000021000000000002210000000000210000000000021500000000002150000000000215000000000021800468000000000000203800000000000043975800000000000000009999123100000010000000000000BRTECNACNOR6107
012023010202JBSS3       010JBS         ON      NM   R$  000000000219900000000022030000000002115000000000214200000000021450000000002145000000000214612379000000000003552200000000007610287600000000000000009999123100000010000000000000BRJBSSACNOR8120
012023010202AESB3       010AES BRASIL  ON      NM   R$  000000000096500000000009670000000000946000000000095300000000009500000000000950000000000095105476000000000001793300000000001710566700000000000000009999123100000010000000000000BRAESBACNOR7105
012023010202ALLD3       010ALLIED      ON  EJ  NM   R$  000000000058500000000006020000000000570000000000058100000000005800000000000580000000000058800102000000000000043900000000000025545000000000000000009999123100000010000000000000BRALLDACNOR3104
012023010202ALSO3       010ALIANSCSONAEON      NM   R$  000000000167900000000016820000000001610000000000162900000000016280000000001628000000000163008470000000000001984100000000003232467800000000000000009999123100000010000000000000BRALSOACNOR5102
